{
  "contractName": "Kontrak",
  "abi": [
    {
      "inputs": [],
      "stateMutability": "nonpayable",
      "type": "constructor"
    },
    {
      "inputs": [],
      "name": "jumlahPegawai",
      "outputs": [
        {
          "internalType": "uint256",
          "name": "",
          "type": "uint256"
        }
      ],
      "stateMutability": "view",
      "type": "function",
      "constant": true
    },
    {
      "inputs": [
        {
          "internalType": "uint256",
          "name": "",
          "type": "uint256"
        }
      ],
      "name": "pegawai",
      "outputs": [
        {
          "internalType": "address",
          "name": "",
          "type": "address"
        }
      ],
      "stateMutability": "view",
      "type": "function",
      "constant": true
    },
    {
      "inputs": [],
      "name": "superAdmin",
      "outputs": [
        {
          "internalType": "address",
          "name": "",
          "type": "address"
        }
      ],
      "stateMutability": "view",
      "type": "function",
      "constant": true
    },
    {
      "inputs": [
        {
          "internalType": "string",
          "name": "_nama",
          "type": "string"
        },
        {
          "internalType": "string",
          "name": "_id",
          "type": "string"
        },
        {
          "internalType": "string",
          "name": "_jabatan",
          "type": "string"
        }
      ],
      "name": "tambahPegawai",
      "outputs": [],
      "stateMutability": "nonpayable",
      "type": "function"
    },
    {
      "inputs": [
        {
          "internalType": "string",
          "name": "_password1",
          "type": "string"
        },
        {
          "internalType": "string",
          "name": "_password2",
          "type": "string"
        }
      ],
      "name": "ubahSandi",
      "outputs": [],
      "stateMutability": "nonpayable",
      "type": "function"
    },
    {
      "inputs": [
        {
          "internalType": "string",
          "name": "_nama",
          "type": "string"
        },
        {
          "internalType": "string",
          "name": "_gender",
          "type": "string"
        },
        {
          "internalType": "string",
          "name": "_pendidikan",
          "type": "string"
        },
        {
          "internalType": "string",
          "name": "_ttl",
          "type": "string"
        },
        {
          "internalType": "string",
          "name": "_alamatRumah",
          "type": "string"
        },
        {
          "internalType": "string",
          "name": "_status",
          "type": "string"
        }
      ],
      "name": "ubahDataPegawai",
      "outputs": [],
      "stateMutability": "nonpayable",
      "type": "function"
    },
    {
      "inputs": [
        {
          "internalType": "address",
          "name": "_alamatPegawai",
          "type": "address"
        }
      ],
      "name": "hapusDataPegawai",
      "outputs": [],
      "stateMutability": "nonpayable",
      "type": "function"
    },
    {
      "inputs": [
        {
          "internalType": "string",
          "name": "_password",
          "type": "string"
        }
      ],
      "name": "absenKerja",
      "outputs": [
        {
          "internalType": "bool",
          "name": "_sedangKerja",
          "type": "bool"
        }
      ],
      "stateMutability": "nonpayable",
      "type": "function"
    },
    {
      "inputs": [],
      "name": "mendapatkanJumlahPegawai",
      "outputs": [
        {
          "internalType": "uint256",
          "name": "",
          "type": "uint256"
        }
      ],
      "stateMutability": "view",
      "type": "function",
      "constant": true
    },
    {
      "inputs": [
        {
          "internalType": "string",
          "name": "_id",
          "type": "string"
        },
        {
          "internalType": "string",
          "name": "_password",
          "type": "string"
        },
        {
          "internalType": "address",
          "name": "_alamatPegawai",
          "type": "address"
        }
      ],
      "name": "Login",
      "outputs": [
        {
          "internalType": "bool",
          "name": "_masukSistem",
          "type": "bool"
        }
      ],
      "stateMutability": "nonpayable",
      "type": "function"
    },
    {
      "inputs": [],
      "name": "logOut",
      "outputs": [
        {
          "internalType": "bool",
          "name": "",
          "type": "bool"
        }
      ],
      "stateMutability": "nonpayable",
      "type": "function"
    }
  ],
  "bytecode": "0x608060405234801561001057600080fd5b506000600181905550336000806101000a81548173ffffffffffffffffffffffffffffffffffffffff021916908373ffffffffffffffffffffffffffffffffffffffff160217905550611748806100686000396000f3fe608060405234801561001057600080fd5b50600436106100a95760003560e01c80636fa953da116100715780636fa953da14610154578063a10bb98314610184578063a54cbf27146101a0578063aec910f7146101d0578063f4641e77146101ee578063fa3f1cb91461020a576100a9565b8063215a58dc146100ae57806329575f6a146100cc5780633b686d6e146100ea5780634be422ae1461011a578063598574f714610138575b600080fd5b6100b6610226565b6040516100c39190610e83565b60405180910390f35b6100d461022c565b6040516100e19190610edf565b60405180910390f35b61010460048036038101906100ff9190610f3a565b610255565b6040516101119190610edf565b60405180910390f35b610122610294565b60405161012f9190610f82565b60405180910390f35b610152600480360381019061014d91906110e3565b6102f4565b005b61016e60048036038101906101699190611244565b610506565b60405161017b9190610f82565b60405180910390f35b61019e600480360381019061019991906112cf565b61065e565b005b6101ba60048036038101906101b591906112fc565b6107d2565b6040516101c79190610f82565b60405180910390f35b6101d86108f3565b6040516101e59190610e83565b60405180910390f35b61020860048036038101906102039190611345565b6108fd565b005b610224600480360381019061021f91906113bd565b6109cc565b005b60015481565b60008060009054906101000a900473ffffffffffffffffffffffffffffffffffffffff16905090565b6002818154811061026557600080fd5b906000526020600020016000915054906101000a900473ffffffffffffffffffffffffffffffffffffffff1681565b600080600360003373ffffffffffffffffffffffffffffffffffffffff1673ffffffffffffffffffffffffffffffffffffffff168152602001908152602001600020600a0160016101000a81548160ff0219169083151502179055905090565b85600360003373ffffffffffffffffffffffffffffffffffffffff1673ffffffffffffffffffffffffffffffffffffffff168152602001908152602001600020600101908051906020019061034a929190610d87565b5084600360003373ffffffffffffffffffffffffffffffffffffffff1673ffffffffffffffffffffffffffffffffffffffff16815260200190815260200160002060030190805190602001906103a1929190610d87565b5083600360003373ffffffffffffffffffffffffffffffffffffffff1673ffffffffffffffffffffffffffffffffffffffff16815260200190815260200160002060050190805190602001906103f8929190610d87565b5082600360003373ffffffffffffffffffffffffffffffffffffffff1673ffffffffffffffffffffffffffffffffffffffff168152602001908152602001600020600601908051906020019061044f929190610d87565b5081600360003373ffffffffffffffffffffffffffffffffffffffff1673ffffffffffffffffffffffffffffffffffffffff16815260200190815260200160002060070190805190602001906104a6929190610d87565b5080600360003373ffffffffffffffffffffffffffffffffffffffff1673ffffffffffffffffffffffffffffffffffffffff16815260200190815260200160002060080190805190602001906104fd929190610d87565b50505050505050565b6000600360008373ffffffffffffffffffffffffffffffffffffffff1673ffffffffffffffffffffffffffffffffffffffff16815260200190815260200160002060020160405160200161055a9190611564565b604051602081830303815290604052805190602001208460405160200161058191906115ea565b604051602081830303815290604052805190602001201480156105ed5750600360008373ffffffffffffffffffffffffffffffffffffffff1673ffffffffffffffffffffffffffffffffffffffff168152602001908152602001600020600901546105eb84610d28565b145b15610656576001600360008473ffffffffffffffffffffffffffffffffffffffff1673ffffffffffffffffffffffffffffffffffffffff168152602001908152602001600020600a0160006101000a81548160ff02191690831515021790555060019050610657565b5b9392505050565b60008054906101000a900473ffffffffffffffffffffffffffffffffffffffff1673ffffffffffffffffffffffffffffffffffffffff163373ffffffffffffffffffffffffffffffffffffffff16146106b657600080fd5b600360008273ffffffffffffffffffffffffffffffffffffffff1673ffffffffffffffffffffffffffffffffffffffff168152602001908152602001600020600080820160006101000a81549073ffffffffffffffffffffffffffffffffffffffff021916905560018201600061072d9190610e0d565b60028201600061073d9190610e0d565b60038201600061074d9190610e0d565b60048201600061075d9190610e0d565b60058201600061076d9190610e0d565b60068201600061077d9190610e0d565b60078201600061078d9190610e0d565b60088201600061079d9190610e0d565b6009820160009055600a820160006101000a81549060ff0219169055600a820160016101000a81549060ff0219169055505050565b60006001600360003373ffffffffffffffffffffffffffffffffffffffff1673ffffffffffffffffffffffffffffffffffffffff168152602001908152602001600020600a0160016101000a81548160ff021916908315150217905561083757600080fd5b600360003373ffffffffffffffffffffffffffffffffffffffff1673ffffffffffffffffffffffffffffffffffffffff1681526020019081526020016000206009015461088383610d28565b14156108ed576001600360003373ffffffffffffffffffffffffffffffffffffffff1673ffffffffffffffffffffffffffffffffffffffff168152602001908152602001600020600a0160006101000a81548160ff021916908315150217905550600190506108ee565b5b919050565b6000600154905090565b6001600360003373ffffffffffffffffffffffffffffffffffffffff1673ffffffffffffffffffffffffffffffffffffffff168152602001908152602001600020600a0160016101000a81548160ff021916908315150217905561096057600080fd5b61096981610d28565b61097283610d28565b14156109c85761098182610d28565b600360003373ffffffffffffffffffffffffffffffffffffffff1673ffffffffffffffffffffffffffffffffffffffff168152602001908152602001600020600901819055505b5050565b60006040518061018001604052803373ffffffffffffffffffffffffffffffffffffffff1681526020018581526020018484604051602001610a0f929190611601565b6040516020818303038152906040528152602001604051806020016040528060008152508152602001838152602001604051806020016040528060008152508152602001604051806020016040528060008152508152602001604051806020016040528060008152508152602001604051806020016040528060008152508152602001610ad06040518060400160405280600381526020017f3132330000000000000000000000000000000000000000000000000000000000815250610d28565b815260200160001515815260200160001515815250905080600360003373ffffffffffffffffffffffffffffffffffffffff1673ffffffffffffffffffffffffffffffffffffffff16815260200190815260200160002060008201518160000160006101000a81548173ffffffffffffffffffffffffffffffffffffffff021916908373ffffffffffffffffffffffffffffffffffffffff1602179055506020820151816001019080519060200190610b8a929190610d87565b506040820151816002019080519060200190610ba7929190610d87565b506060820151816003019080519060200190610bc4929190610d87565b506080820151816004019080519060200190610be1929190610d87565b5060a0820151816005019080519060200190610bfe929190610d87565b5060c0820151816006019080519060200190610c1b929190610d87565b5060e0820151816007019080519060200190610c38929190610d87565b50610100820151816008019080519060200190610c56929190610d87565b50610120820151816009015561014082015181600a0160006101000a81548160ff02191690831515021790555061016082015181600a0160016101000a81548160ff0219169083151502179055509050506002339080600181540180825580915050600190039060005260206000200160009091909190916101000a81548173ffffffffffffffffffffffffffffffffffffffff021916908373ffffffffffffffffffffffffffffffffffffffff16021790555060016000815480929190610d1d90611654565b919050555050505050565b60008160046009604051602001610d409291906116be565b6040516020818303038152906040528051906020012060001c604051602001610d6a9291906116ea565b604051602081830303815290604052805190602001209050919050565b828054610d9390611493565b90600052602060002090601f016020900481019282610db55760008555610dfc565b82601f10610dce57805160ff1916838001178555610dfc565b82800160010185558215610dfc579182015b82811115610dfb578251825591602001919060010190610de0565b5b509050610e099190610e4d565b5090565b508054610e1990611493565b6000825580601f10610e2b5750610e4a565b601f016020900490600052602060002090810190610e499190610e4d565b5b50565b5b80821115610e66576000816000905550600101610e4e565b5090565b6000819050919050565b610e7d81610e6a565b82525050565b6000602082019050610e986000830184610e74565b92915050565b600073ffffffffffffffffffffffffffffffffffffffff82169050919050565b6000610ec982610e9e565b9050919050565b610ed981610ebe565b82525050565b6000602082019050610ef46000830184610ed0565b92915050565b6000604051905090565b600080fd5b600080fd5b610f1781610e6a565b8114610f2257600080fd5b50565b600081359050610f3481610f0e565b92915050565b600060208284031215610f5057610f4f610f04565b5b6000610f5e84828501610f25565b91505092915050565b60008115159050919050565b610f7c81610f67565b82525050565b6000602082019050610f976000830184610f73565b92915050565b600080fd5b600080fd5b6000601f19601f8301169050919050565b7f4e487b7100000000000000000000000000000000000000000000000000000000600052604160045260246000fd5b610ff082610fa7565b810181811067ffffffffffffffff8211171561100f5761100e610fb8565b5b80604052505050565b6000611022610efa565b905061102e8282610fe7565b919050565b600067ffffffffffffffff82111561104e5761104d610fb8565b5b61105782610fa7565b9050602081019050919050565b82818337600083830152505050565b600061108661108184611033565b611018565b9050828152602081018484840111156110a2576110a1610fa2565b5b6110ad848285611064565b509392505050565b600082601f8301126110ca576110c9610f9d565b5b81356110da848260208601611073565b91505092915050565b60008060008060008060c08789031215611100576110ff610f04565b5b600087013567ffffffffffffffff81111561111e5761111d610f09565b5b61112a89828a016110b5565b965050602087013567ffffffffffffffff81111561114b5761114a610f09565b5b61115789828a016110b5565b955050604087013567ffffffffffffffff81111561117857611177610f09565b5b61118489828a016110b5565b945050606087013567ffffffffffffffff8111156111a5576111a4610f09565b5b6111b189828a016110b5565b935050608087013567ffffffffffffffff8111156111d2576111d1610f09565b5b6111de89828a016110b5565b92505060a087013567ffffffffffffffff8111156111ff576111fe610f09565b5b61120b89828a016110b5565b9150509295509295509295565b61122181610ebe565b811461122c57600080fd5b50565b60008135905061123e81611218565b92915050565b60008060006060848603121561125d5761125c610f04565b5b600084013567ffffffffffffffff81111561127b5761127a610f09565b5b611287868287016110b5565b935050602084013567ffffffffffffffff8111156112a8576112a7610f09565b5b6112b4868287016110b5565b92505060406112c58682870161122f565b9150509250925092565b6000602082840312156112e5576112e4610f04565b5b60006112f38482850161122f565b91505092915050565b60006020828403121561131257611311610f04565b5b600082013567ffffffffffffffff8111156113305761132f610f09565b5b61133c848285016110b5565b91505092915050565b6000806040838503121561135c5761135b610f04565b5b600083013567ffffffffffffffff81111561137a57611379610f09565b5b611386858286016110b5565b925050602083013567ffffffffffffffff8111156113a7576113a6610f09565b5b6113b3858286016110b5565b9150509250929050565b6000806000606084860312156113d6576113d5610f04565b5b600084013567ffffffffffffffff8111156113f4576113f3610f09565b5b611400868287016110b5565b935050602084013567ffffffffffffffff81111561142157611420610f09565b5b61142d868287016110b5565b925050604084013567ffffffffffffffff81111561144e5761144d610f09565b5b61145a868287016110b5565b9150509250925092565b7f4e487b7100000000000000000000000000000000000000000000000000000000600052602260045260246000fd5b600060028204905060018216806114ab57607f821691505b602082108114156114bf576114be611464565b5b50919050565b600081905092915050565b60008190508160005260206000209050919050565b600081546114f281611493565b6114fc81866114c5565b9450600182166000811461151757600181146115285761155b565b60ff1983168652818601935061155b565b611531856114d0565b60005b8381101561155357815481890152600182019150602081019050611534565b838801955050505b50505092915050565b600061157082846114e5565b915081905092915050565b600081519050919050565b60005b838110156115a4578082015181840152602081019050611589565b838111156115b3576000848401525b50505050565b60006115c48261157b565b6115ce81856114c5565b93506115de818560208601611586565b80840191505092915050565b60006115f682846115b9565b915081905092915050565b600061160d82856115b9565b915061161982846115b9565b91508190509392505050565b7f4e487b7100000000000000000000000000000000000000000000000000000000600052601160045260246000fd5b600061165f82610e6a565b91507fffffffffffffffffffffffffffffffffffffffffffffffffffffffffffffffff82141561169257611691611625565b5b600182019050919050565b6000819050919050565b6116b86116b382610e6a565b61169d565b82525050565b60006116ca82856116a7565b6020820191506116da82846116a7565b6020820191508190509392505050565b60006116f682856115b9565b915061170282846116a7565b602082019150819050939250505056fea26469706673582212200591101b62865019cc3de54bd45f4dc241798c6adaee957ebe1f2c3a2f8ad59764736f6c63430008090033",
  "immutableReferences": {},
  "source": "// SPDX-License-Identifier: MIT\r\npragma solidity >=0.7.0 < 0.8.10;\r\npragma experimental ABIEncoderV2;\r\n\r\ncontract Kontrak {\r\n    address private admin;\r\n    uint public jumlahPegawai;\r\n\r\n    constructor () {\r\n        jumlahPegawai = 0;\r\n        admin = msg.sender;\r\n    }\r\n\r\n    modifier onlyAdmin() {\r\n    require(msg.sender == admin);\r\n    _;\r\n    }\r\n\r\n    function superAdmin() public view returns(address) {\r\n        return admin;\r\n    }\r\n\r\n    struct Pegawai {\r\n        address keyAddress;\r\n        string nama;\r\n        string id;\r\n        string gender;\r\n        string jabatan;\r\n        string pendidikan;\r\n        string ttl;\r\n        string alamatRumah;\r\n        string status;\r\n        bytes32 password;\r\n        bool sedangKerja;\r\n        bool masukSistem;\r\n    }\r\n    \r\n    address [] public pegawai;\r\n    mapping(address => Pegawai) private dataPegawai;\r\n\r\n    function nomorJabatan(string memory _jabatan) private pure returns(string memory){\r\n        if (hashSandi(_jabatan) == hashSandi(\"Manager\")) {\r\n            return \"01\";\r\n        } else if (hashSandi(_jabatan) == hashSandi(\"Administrasi\")) {\r\n            return \"02\";\r\n        } else if (hashSandi(_jabatan) == hashSandi(\"Kasir\")) {\r\n            return \"03\";\r\n        } else {\r\n            return \"Error Input\";\r\n        }\r\n    }\r\n\r\n    function hashSandi(string memory _password) private pure returns(bytes32) {\r\n        return bytes32(keccak256(abi.encodePacked(_password, uint(keccak256(abi.encodePacked(uint(4), uint(9)))))));\r\n    }\r\n\r\n    function tambahPegawai(string memory _nama, string memory _id, string memory _jabatan) public {\r\n        Pegawai memory newPegawai = Pegawai({\r\n            keyAddress : msg.sender,\r\n            nama : _nama,\r\n            id : string(abi.encodePacked(_id, _jabatan)),\r\n            gender: \"\",\r\n            jabatan : _jabatan,\r\n            pendidikan : \"\",\r\n            ttl : \"\",\r\n            alamatRumah : \"\",\r\n            status : \"\",\r\n            password : hashSandi(\"123\"),\r\n            sedangKerja : false,\r\n            masukSistem : false\r\n        });\r\n        dataPegawai[msg.sender] = newPegawai;\r\n        pegawai.push(msg.sender);\r\n        jumlahPegawai++;\r\n    }\r\n\r\n    function ubahSandi(string memory _password1, string memory _password2) public {\r\n        require(dataPegawai[msg.sender].masukSistem = true);\r\n        if (hashSandi(_password1) == hashSandi(_password2)) {\r\n            dataPegawai[msg.sender].password = hashSandi(_password1);\r\n        }\r\n    }\r\n\r\n    function ubahDataPegawai(string memory _nama, string memory _gender, string memory _pendidikan, string memory _ttl, string memory _alamatRumah, string memory _status) public {\r\n        dataPegawai[msg.sender].nama = _nama;\r\n        dataPegawai[msg.sender].gender = _gender;\r\n        dataPegawai[msg.sender].pendidikan = _pendidikan;\r\n        dataPegawai[msg.sender].ttl = _ttl;\r\n        dataPegawai[msg.sender].alamatRumah = _alamatRumah;\r\n        dataPegawai[msg.sender].status = _status;\r\n    }\r\n\r\n    function hapusDataPegawai(address _alamatPegawai) onlyAdmin public {\r\n        delete dataPegawai[_alamatPegawai];\r\n    }\r\n\r\n    function absenKerja(string memory _password) public returns(bool _sedangKerja) {\r\n        require(dataPegawai[msg.sender].masukSistem = true);\r\n        if (hashSandi(_password) == dataPegawai[msg.sender].password) {\r\n            dataPegawai[msg.sender].sedangKerja = true;\r\n            return true;\r\n        }\r\n    }\r\n\r\n    function mendapatkanJumlahPegawai() public view returns(uint) {\r\n        return jumlahPegawai;\r\n    }\r\n\r\n    function Login(string memory _id, string memory _password, address _alamatPegawai) public returns(bool _masukSistem) {\r\n        if (keccak256(abi.encodePacked(_id)) == keccak256(abi.encodePacked(dataPegawai[_alamatPegawai].id)) && hashSandi(_password) == dataPegawai[_alamatPegawai].password) {\r\n            dataPegawai[_alamatPegawai].sedangKerja = true;\r\n            return true;\r\n        }\r\n    }\r\n\r\n    function logOut() public returns(bool) {\r\n        return dataPegawai[msg.sender].masukSistem = false;\r\n    }\r\n}",
  "sourcePath": "C:\\Users\\Angga Danar\\Documents\\PKL\\Aplikasi-Data_Pegawai\\contracts\\Kontrak.sol",
  "compiler": {
    "name": "solc",
    "version": "0.8.9+commit.e5eed63a.Emscripten.clang"
  },
  "schemaVersion": "3.4.3",
  "updatedAt": "2021-11-29T17:11:38.305Z",
  "networkType": "ethereum",
  "devdoc": {
    "kind": "dev",
    "methods": {},
    "version": 1
  },
  "userdoc": {
    "kind": "user",
    "methods": {},
    "version": 1
  }
}